{
  "_format": "hh-sol-artifact-1",
  "contractName": "Fundraiser",
  "sourceName": "contracts/Fundraiser.sol",
  "abi": [
    {
      "inputs": [
        {
          "internalType": "address",
          "name": "_creator",
          "type": "address"
        },
        {
          "internalType": "string",
          "name": "_title",
          "type": "string"
        },
        {
          "internalType": "string",
          "name": "_description",
          "type": "string"
        },
        {
          "internalType": "uint256",
          "name": "_goal",
          "type": "uint256"
        }
      ],
      "stateMutability": "nonpayable",
      "type": "constructor"
    },
    {
      "anonymous": false,
      "inputs": [
        {
          "indexed": true,
          "internalType": "address",
          "name": "donor",
          "type": "address"
        },
        {
          "indexed": false,
          "internalType": "uint256",
          "name": "amount",
          "type": "uint256"
        }
      ],
      "name": "DonationReceived",
      "type": "event"
    },
    {
      "anonymous": false,
      "inputs": [
        {
          "indexed": true,
          "internalType": "address",
          "name": "creator",
          "type": "address"
        },
        {
          "indexed": false,
          "internalType": "uint256",
          "name": "amount",
          "type": "uint256"
        }
      ],
      "name": "FundsWithdrawn",
      "type": "event"
    },
    {
      "inputs": [],
      "name": "creator",
      "outputs": [
        {
          "internalType": "address",
          "name": "",
          "type": "address"
        }
      ],
      "stateMutability": "view",
      "type": "function"
    },
    {
      "inputs": [],
      "name": "description",
      "outputs": [
        {
          "internalType": "string",
          "name": "",
          "type": "string"
        }
      ],
      "stateMutability": "view",
      "type": "function"
    },
    {
      "inputs": [],
      "name": "donate",
      "outputs": [],
      "stateMutability": "payable",
      "type": "function"
    },
    {
      "inputs": [],
      "name": "getDetails",
      "outputs": [
        {
          "internalType": "string",
          "name": "_title",
          "type": "string"
        },
        {
          "internalType": "string",
          "name": "_description",
          "type": "string"
        },
        {
          "internalType": "uint256",
          "name": "_goal",
          "type": "uint256"
        },
        {
          "internalType": "uint256",
          "name": "_totalRaised",
          "type": "uint256"
        },
        {
          "internalType": "bool",
          "name": "_isWithdrawn",
          "type": "bool"
        },
        {
          "internalType": "address",
          "name": "_creator",
          "type": "address"
        }
      ],
      "stateMutability": "view",
      "type": "function"
    },
    {
      "inputs": [],
      "name": "goal",
      "outputs": [
        {
          "internalType": "uint256",
          "name": "",
          "type": "uint256"
        }
      ],
      "stateMutability": "view",
      "type": "function"
    },
    {
      "inputs": [],
      "name": "isWithdrawn",
      "outputs": [
        {
          "internalType": "bool",
          "name": "",
          "type": "bool"
        }
      ],
      "stateMutability": "view",
      "type": "function"
    },
    {
      "inputs": [],
      "name": "title",
      "outputs": [
        {
          "internalType": "string",
          "name": "",
          "type": "string"
        }
      ],
      "stateMutability": "view",
      "type": "function"
    },
    {
      "inputs": [],
      "name": "totalRaised",
      "outputs": [
        {
          "internalType": "uint256",
          "name": "",
          "type": "uint256"
        }
      ],
      "stateMutability": "view",
      "type": "function"
    },
    {
      "inputs": [],
      "name": "withdraw",
      "outputs": [],
      "stateMutability": "nonpayable",
      "type": "function"
    }
  ],
  "bytecode": "0x60806040523480156200001157600080fd5b50604051620012eb380380620012eb83398181016040528101906200003791906200020a565b836000806101000a81548173ffffffffffffffffffffffffffffffffffffffff021916908373ffffffffffffffffffffffffffffffffffffffff16021790555082600190805190602001906200008f929190620000ba565b508160029080519060200190620000a8929190620000ba565b5080600381905550505050506200048a565b828054620000c8906200037b565b90600052602060002090601f016020900481019282620000ec576000855562000138565b82601f106200010757805160ff191683800117855562000138565b8280016001018555821562000138579182015b82811115620001375782518255916020019190600101906200011a565b5b5090506200014791906200014b565b5090565b5b80821115620001665760008160009055506001016200014c565b5090565b6000620001816200017b84620002d1565b620002a8565b9050828152602081018484840111156200019a57600080fd5b620001a784828562000345565b509392505050565b600081519050620001c08162000456565b92915050565b600082601f830112620001d857600080fd5b8151620001ea8482602086016200016a565b91505092915050565b600081519050620002048162000470565b92915050565b600080600080608085870312156200022157600080fd5b60006200023187828801620001af565b945050602085015167ffffffffffffffff8111156200024f57600080fd5b6200025d87828801620001c6565b935050604085015167ffffffffffffffff8111156200027b57600080fd5b6200028987828801620001c6565b92505060606200029c87828801620001f3565b91505092959194509250565b6000620002b4620002c7565b9050620002c28282620003b1565b919050565b6000604051905090565b600067ffffffffffffffff821115620002ef57620002ee62000416565b5b620002fa8262000445565b9050602081019050919050565b600062000314826200031b565b9050919050565b600073ffffffffffffffffffffffffffffffffffffffff82169050919050565b6000819050919050565b60005b838110156200036557808201518184015260208101905062000348565b8381111562000375576000848401525b50505050565b600060028204905060018216806200039457607f821691505b60208210811415620003ab57620003aa620003e7565b5b50919050565b620003bc8262000445565b810181811067ffffffffffffffff82111715620003de57620003dd62000416565b5b80604052505050565b7f4e487b7100000000000000000000000000000000000000000000000000000000600052602260045260246000fd5b7f4e487b7100000000000000000000000000000000000000000000000000000000600052604160045260246000fd5b6000601f19601f8301169050919050565b620004618162000307565b81146200046d57600080fd5b50565b6200047b816200033b565b81146200048757600080fd5b50565b610e51806200049a6000396000f3fe6080604052600436106100865760003560e01c80634a79d50c116100595780634a79d50c146101235780637284e4161461014e578063c5c4744c14610179578063ed88c68e146101a4578063fbbf93a0146101ae57610086565b806302d05d3f1461008b5780633ccfd60b146100b657806340193883146100cd57806344aa5700146100f8575b600080fd5b34801561009757600080fd5b506100a06101de565b6040516100ad919061099b565b60405180910390f35b3480156100c257600080fd5b506100cb610202565b005b3480156100d957600080fd5b506100e2610484565b6040516100ef9190610b22565b60405180910390f35b34801561010457600080fd5b5061010d61048a565b60405161011a91906109b6565b60405180910390f35b34801561012f57600080fd5b5061013861049d565b60405161014591906109d1565b60405180910390f35b34801561015a57600080fd5b5061016361052b565b60405161017091906109d1565b60405180910390f35b34801561018557600080fd5b5061018e6105b9565b60405161019b9190610b22565b60405180910390f35b6101ac6105bf565b005b3480156101ba57600080fd5b506101c36106bb565b6040516101d5969594939291906109f3565b60405180910390f35b60008054906101000a900473ffffffffffffffffffffffffffffffffffffffff1681565b60008054906101000a900473ffffffffffffffffffffffffffffffffffffffff1673ffffffffffffffffffffffffffffffffffffffff163373ffffffffffffffffffffffffffffffffffffffff1614610290576040517f08c379a000000000000000000000000000000000000000000000000000000000815260040161028790610ae2565b60405180910390fd5b6000600454116102d5576040517f08c379a00000000000000000000000000000000000000000000000000000000081526004016102cc90610ac2565b60405180910390fd5b600560009054906101000a900460ff1615610325576040517f08c379a000000000000000000000000000000000000000000000000000000000815260040161031c90610aa2565b60405180910390fd5b60004790506001600560006101000a81548160ff02191690831515021790555060008060009054906101000a900473ffffffffffffffffffffffffffffffffffffffff1673ffffffffffffffffffffffffffffffffffffffff168260405161038c90610986565b60006040518083038185875af1925050503d80600081146103c9576040519150601f19603f3d011682016040523d82523d6000602084013e6103ce565b606091505b5050905080610412576040517f08c379a000000000000000000000000000000000000000000000000000000000815260040161040990610a82565b60405180910390fd5b60008054906101000a900473ffffffffffffffffffffffffffffffffffffffff1673ffffffffffffffffffffffffffffffffffffffff167feaff4b37086828766ad3268786972c0cd24259d4c87a80f9d3963a3c3d999b0d836040516104789190610b22565b60405180910390a25050565b60035481565b600560009054906101000a900460ff1681565b600180546104aa90610c35565b80601f01602080910402602001604051908101604052809291908181526020018280546104d690610c35565b80156105235780601f106104f857610100808354040283529160200191610523565b820191906000526020600020905b81548152906001019060200180831161050657829003601f168201915b505050505081565b6002805461053890610c35565b80601f016020809104026020016040519081016040528092919081815260200182805461056490610c35565b80156105b15780601f10610586576101008083540402835291602001916105b1565b820191906000526020600020905b81548152906001019060200180831161059457829003601f168201915b505050505081565b60045481565b60003411610602576040517f08c379a00000000000000000000000000000000000000000000000000000000081526004016105f990610a62565b60405180910390fd5b600560009054906101000a900460ff1615610652576040517f08c379a000000000000000000000000000000000000000000000000000000000815260040161064990610b02565b60405180910390fd5b34600460008282546106649190610b64565b925050819055503373ffffffffffffffffffffffffffffffffffffffff167f264f630d9efa0d07053a31163641d9fcc0adafc9d9e76f1c37c2ce3a558d2c52346040516106b19190610b22565b60405180910390a2565b60608060008060008060016002600354600454600560009054906101000a900460ff1660008054906101000a900473ffffffffffffffffffffffffffffffffffffffff1685805461070b90610c35565b80601f016020809104026020016040519081016040528092919081815260200182805461073790610c35565b80156107845780601f1061075957610100808354040283529160200191610784565b820191906000526020600020905b81548152906001019060200180831161076757829003601f168201915b5050505050955084805461079790610c35565b80601f01602080910402602001604051908101604052809291908181526020018280546107c390610c35565b80156108105780601f106107e557610100808354040283529160200191610810565b820191906000526020600020905b8154815290600101906020018083116107f357829003601f168201915b50505050509450955095509550955095509550909192939495565b61083481610bba565b82525050565b61084381610bcc565b82525050565b600061085482610b3d565b61085e8185610b53565b935061086e818560208601610c02565b61087781610cc5565b840191505092915050565b600061088f601f83610b53565b915061089a82610cd6565b602082019050919050565b60006108b2600f83610b53565b91506108bd82610cff565b602082019050919050565b60006108d5601783610b53565b91506108e082610d28565b602082019050919050565b60006108f8601483610b53565b915061090382610d51565b602082019050919050565b600061091b602483610b53565b915061092682610d7a565b604082019050919050565b600061093e600083610b48565b915061094982610dc9565b600082019050919050565b6000610961602583610b53565b915061096c82610dcc565b604082019050919050565b61098081610bf8565b82525050565b600061099182610931565b9150819050919050565b60006020820190506109b0600083018461082b565b92915050565b60006020820190506109cb600083018461083a565b92915050565b600060208201905081810360008301526109eb8184610849565b905092915050565b600060c0820190508181036000830152610a0d8189610849565b90508181036020830152610a218188610849565b9050610a306040830187610977565b610a3d6060830186610977565b610a4a608083018561083a565b610a5760a083018461082b565b979650505050505050565b60006020820190508181036000830152610a7b81610882565b9050919050565b60006020820190508181036000830152610a9b816108a5565b9050919050565b60006020820190508181036000830152610abb816108c8565b9050919050565b60006020820190508181036000830152610adb816108eb565b9050919050565b60006020820190508181036000830152610afb8161090e565b9050919050565b60006020820190508181036000830152610b1b81610954565b9050919050565b6000602082019050610b376000830184610977565b92915050565b600081519050919050565b600081905092915050565b600082825260208201905092915050565b6000610b6f82610bf8565b9150610b7a83610bf8565b9250827fffffffffffffffffffffffffffffffffffffffffffffffffffffffffffffffff03821115610baf57610bae610c67565b5b828201905092915050565b6000610bc582610bd8565b9050919050565b60008115159050919050565b600073ffffffffffffffffffffffffffffffffffffffff82169050919050565b6000819050919050565b60005b83811015610c20578082015181840152602081019050610c05565b83811115610c2f576000848401525b50505050565b60006002820490506001821680610c4d57607f821691505b60208210811415610c6157610c60610c96565b5b50919050565b7f4e487b7100000000000000000000000000000000000000000000000000000000600052601160045260246000fd5b7f4e487b7100000000000000000000000000000000000000000000000000000000600052602260045260246000fd5b6000601f19601f8301169050919050565b7f446f6e6174696f6e206d7573742062652067726561746572207468616e203000600082015250565b7f5472616e73666572206661696c65640000000000000000000000000000000000600082015250565b7f46756e647320616c72656164792077697468647261776e000000000000000000600082015250565b7f4e6f2066756e647320746f207769746864726177000000000000000000000000600082015250565b7f4f6e6c792063726561746f722063616e20706572666f726d207468697320616360008201527f74696f6e00000000000000000000000000000000000000000000000000000000602082015250565b50565b7f46756e647261697365722068617320616c7265616479206265656e2066696e6160008201527f6c697a656400000000000000000000000000000000000000000000000000000060208201525056fea26469706673582212209c8ed775252a321f63be14ec23e500a65953910e08f9245fb4f14484bf3d2b1c64736f6c63430008040033",
  "linkReferences": {},
  "deployedLinkReferences": {}
}